{
  "transactions": [
    {
      "hash": "0xde908a5b1de65c694efc74f5f09a6c1f1b48671187ee5b0a07acf2fd568cb86b",
      "transactionType": "CALL",
      "contractName": null,
      "contractAddress": "0x833589fcd6edb6e08f4c7c32d4f71b54bda02913",
      "function": "approve(address,uint256)",
      "arguments": [
        "0xe16dbB382410Df48d861cf29c5a4258FA0618369",
        "1000000"
      ],
      "transaction": {
        "from": "0x1ed167f87f77ee1059a7bf2ec21c302563334ef7",
        "to": "0x833589fcd6edb6e08f4c7c32d4f71b54bda02913",
        "gas": "0x12b1b",
        "value": "0x0",
        "input": "0x095ea7b3000000000000000000000000e16dbb382410df48d861cf29c5a4258fa061836900000000000000000000000000000000000000000000000000000000000f4240",
        "nonce": "0x0",
        "chainId": "0x2105"
      },
      "additionalContracts": [],
      "isFixedGasLimit": false
    },
    {
      "hash": "0x8fb9c8e5e8341c6bf1432564cb007b873c70e4ab9f6382c9e31934e94c79dcb4",
      "transactionType": "CALL",
      "contractName": null,
      "contractAddress": "0xe16dbb382410df48d861cf29c5a4258fa0618369",
      "function": "transferERC20(address,address,uint8,uint256,bytes)",
      "arguments": [
        "0x833589fCD6eDb6E08f4c7C32D4f71b54bdA02913",
        "0x1ED167f87F77Ee1059A7bF2ec21c302563334ef7",
        "1",
        "1000000",
        "0x000000000000000000000000000000000000000000000000000000000000006000000000000000000000000000000000000000000000000000000000075bcd1500000000000000000000000000000000000000000000000000000000000000a00000000000000000000000000000000000000000000000000000000000000013666966612d776f726c642d6375702d323032360000000000000000000000000000000000000000000000000000000000000000000000000000000000000000037965730000000000000000000000000000000000000000000000000000000000"
      ],
      "transaction": {
        "from": "0x47874074ad9962bf77b2c6946f17e5802f9199c2",
        "to": "0xe16dbb382410df48d861cf29c5a4258fa0618369",
        "gas": "0x1d427",
        "value": "0x0",
        "input": "0x5d4ffa65000000000000000000000000833589fcd6edb6e08f4c7c32d4f71b54bda029130000000000000000000000001ed167f87f77ee1059a7bf2ec21c302563334ef7000000000000000000000000000000000000000000000000000000000000000100000000000000000000000000000000000000000000000000000000000f424000000000000000000000000000000000000000000000000000000000000000a000000000000000000000000000000000000000000000000000000000000000e0000000000000000000000000000000000000000000000000000000000000006000000000000000000000000000000000000000000000000000000000075bcd1500000000000000000000000000000000000000000000000000000000000000a00000000000000000000000000000000000000000000000000000000000000013666966612d776f726c642d6375702d323032360000000000000000000000000000000000000000000000000000000000000000000000000000000000000000037965730000000000000000000000000000000000000000000000000000000000",
        "nonce": "0x6",
        "chainId": "0x2105"
      },
      "additionalContracts": [],
      "isFixedGasLimit": false
    }
  ],
  "receipts": [
    {
      "status": "0x1",
      "cumulativeGasUsed": "0x2553ae8",
      "logs": [
        {
          "address": "0x833589fcd6edb6e08f4c7c32d4f71b54bda02913",
          "topics": [
            "0x8c5be1e5ebec7d5bd14f71427d1e84f3dd0314c0f7b2291e5b200ac8c7c3b925",
            "0x0000000000000000000000001ed167f87f77ee1059a7bf2ec21c302563334ef7",
            "0x000000000000000000000000e16dbb382410df48d861cf29c5a4258fa0618369"
          ],
          "data": "0x00000000000000000000000000000000000000000000000000000000000f4240",
          "blockHash": "0x5f9840f683616ac1c09745e42e93d0e826696e01d592828740f421be50893991",
          "blockNumber": "0x27e79f5",
          "blockTimestamp": "0x698750cd",
          "transactionHash": "0xde908a5b1de65c694efc74f5f09a6c1f1b48671187ee5b0a07acf2fd568cb86b",
          "transactionIndex": "0x92",
          "logIndex": "0x2b5",
          "removed": false
        }
      ],
      "logsBloom": "0x00000000000000000000000000000000000000000000000000004000000000000000000000000000000000000000100000000000000000000000000000200000000000000000000000000000000100000000000000080000000000400000000000800000000000000000000000000000000000000000000000000000000000000000000000000000000000000000000000000000000000000000000000000000020000000000000000000000000000000000000000000000000000000040000000000000000000000000000000000000000000000000000000000000020000010010000000000000000000000000000000000000000000000000000000000000",
      "type": "0x2",
      "transactionHash": "0xde908a5b1de65c694efc74f5f09a6c1f1b48671187ee5b0a07acf2fd568cb86b",
      "transactionIndex": "0x92",
      "blockHash": "0x5f9840f683616ac1c09745e42e93d0e826696e01d592828740f421be50893991",
      "blockNumber": "0x27e79f5",
      "gasUsed": "0xd88d",
      "effectiveGasPrice": "0x6992eb",
      "blobGasUsed": "0x364c",
      "from": "0x1ed167f87f77ee1059a7bf2ec21c302563334ef7",
      "to": "0x833589fcd6edb6e08f4c7c32d4f71b54bda02913",
      "contractAddress": null,
      "daFootprintGasScalar": "0x8b",
      "l1BaseFeeScalar": "0x8dd",
      "l1BlobBaseFee": "0x782d57",
      "l1BlobBaseFeeScalar": "0x101c12",
      "l1Fee": "0x5195f314",
      "l1GasPrice": "0x8d22ed0",
      "l1GasUsed": "0x640"
    },
    {
      "status": "0x1",
      "cumulativeGasUsed": "0x19c6d4a",
      "logs": [
        {
          "address": "0x833589fcd6edb6e08f4c7c32d4f71b54bda02913",
          "topics": [
            "0xddf252ad1be2c89b69c2b068fc378daa952ba7f163c4a11628f55a4df523b3ef",
            "0x0000000000000000000000001ed167f87f77ee1059a7bf2ec21c302563334ef7",
            "0x0000000000000000000000001231deb6f5749ef6ce6943a275a1d3e7486f4eae"
          ],
          "data": "0x00000000000000000000000000000000000000000000000000000000000f4240",
          "blockHash": "0x60cfcb2d91eb5a61ea57be664d3e878f9238410b4e88d2d5c95337f636af3f41",
          "blockNumber": "0x27e79f6",
          "transactionHash": "0x8fb9c8e5e8341c6bf1432564cb007b873c70e4ab9f6382c9e31934e94c79dcb4",
          "transactionIndex": "0x6e",
          "logIndex": "0x0",
          "removed": false
        },
        {
          "address": "0xe16dbb382410df48d861cf29c5a4258fa0618369",
          "topics": [
            "0x1347300688116acfa8e0381e08a8c3f8cf24a6c2dffc6032e15cf3968cd73bad",
            "0x0000000000000000000000001ed167f87f77ee1059a7bf2ec21c302563334ef7",
            "0x0000000000000000000000000000000000000000000000000000000000000001"
          ],
          "data": "0x000000000000000000000000833589fcd6edb6e08f4c7c32d4f71b54bda0291300000000000000000000000000000000000000000000000000000000000f4240000000000000000000000000000000000000000000000000000000000000006000000000000000000000000000000000000000000000000000000000000000e0000000000000000000000000000000000000000000000000000000000000006000000000000000000000000000000000000000000000000000000000075bcd1500000000000000000000000000000000000000000000000000000000000000a00000000000000000000000000000000000000000000000000000000000000013666966612d776f726c642d6375702d323032360000000000000000000000000000000000000000000000000000000000000000000000000000000000000000037965730000000000000000000000000000000000000000000000000000000000",
          "blockHash": "0x60cfcb2d91eb5a61ea57be664d3e878f9238410b4e88d2d5c95337f636af3f41",
          "blockNumber": "0x27e79f6",
          "transactionHash": "0x8fb9c8e5e8341c6bf1432564cb007b873c70e4ab9f6382c9e31934e94c79dcb4",
          "transactionIndex": "0x6e",
          "logIndex": "0x1",
          "removed": false
        }
      ],
      "logsBloom": "0x00000000000000000000000000000000000000000000000000000000000000000000000000000000000000000000000000000000000000000000000000000000000000000000000000000000000000000000000000000000000000000000000000000000000000000000000000000000000000000000000000000000000000000000000000000000000000000000000000000000000000000000000000000000000000000000000000000000000000000000000000000000000000000000000000000000000000000000000000000000000000000000000000000000000000000000000000000000000000000000000000000000000000000000000000000000",
      "type": "0x2",
      "transactionHash": "0x8fb9c8e5e8341c6bf1432564cb007b873c70e4ab9f6382c9e31934e94c79dcb4",
      "transactionIndex": "0x6e",
      "blockHash": "0x60cfcb2d91eb5a61ea57be664d3e878f9238410b4e88d2d5c95337f636af3f41",
      "blockNumber": "0x27e79f6",
      "gasUsed": "0x1401b",
      "effectiveGasPrice": "0xc3e3b6",
      "blobGasUsed": "0x0",
      "from": "0x47874074ad9962bf77b2c6946f17e5802f9199c2",
      "to": "0xe16dbb382410df48d861cf29c5a4258fa0618369",
      "contractAddress": null,
      "l1BaseFeeScalar": "0x8dd",
      "l1BlobBaseFee": "0x782d57",
      "l1BlobBaseFeeScalar": "0x101c12",
      "l1Fee": "0x8d5505d4",
      "l1GasPrice": "0x8d22ed0",
      "l1GasUsed": "0xad3"
    }
  ],
  "libraries": [],
  "pending": [],
  "returns": {},
  "timestamp": 1770475727356,
  "chain": 8453,
  "commit": "70c45d9"
}