{
  "transactions": [
    {
      "hash": null,
      "transactionType": "CALL",
      "contractName": null,
      "contractAddress": "0x833589fcd6edb6e08f4c7c32d4f71b54bda02913",
      "function": "approve(address,uint256)",
      "arguments": [
        "0xe16dbB382410Df48d861cf29c5a4258FA0618369",
        "1000000"
      ],
      "transaction": {
        "from": "0x1ed167f87f77ee1059a7bf2ec21c302563334ef7",
        "to": "0x833589fcd6edb6e08f4c7c32d4f71b54bda02913",
        "gas": "0x12b1b",
        "value": "0x0",
        "input": "0x095ea7b3000000000000000000000000e16dbb382410df48d861cf29c5a4258fa061836900000000000000000000000000000000000000000000000000000000000f4240",
        "nonce": "0x0",
        "chainId": "0x2105"
      },
      "additionalContracts": [],
      "isFixedGasLimit": false
    },
    {
      "hash": null,
      "transactionType": "CALL",
      "contractName": null,
      "contractAddress": "0xe16dbb382410df48d861cf29c5a4258fa0618369",
      "function": "transferERC20(address,address,uint8,uint256,bytes)",
      "arguments": [
        "0x833589fCD6eDb6E08f4c7C32D4f71b54bdA02913",
        "0x1ED167f87F77Ee1059A7bF2ec21c302563334ef7",
        "1",
        "1000000",
        "0x000000000000000000000000000000000000000000000000000000000000006000000000000000000000000000000000000000000000000000000000075bcd1500000000000000000000000000000000000000000000000000000000000000a00000000000000000000000000000000000000000000000000000000000000013666966612d776f726c642d6375702d323032360000000000000000000000000000000000000000000000000000000000000000000000000000000000000000037965730000000000000000000000000000000000000000000000000000000000"
      ],
      "transaction": {
        "from": "0x47874074ad9962bf77b2c6946f17e5802f9199c2",
        "to": "0xe16dbb382410df48d861cf29c5a4258fa0618369",
        "gas": "0x1d427",
        "value": "0x0",
        "input": "0x5d4ffa65000000000000000000000000833589fcd6edb6e08f4c7c32d4f71b54bda029130000000000000000000000001ed167f87f77ee1059a7bf2ec21c302563334ef7000000000000000000000000000000000000000000000000000000000000000100000000000000000000000000000000000000000000000000000000000f424000000000000000000000000000000000000000000000000000000000000000a000000000000000000000000000000000000000000000000000000000000000e0000000000000000000000000000000000000000000000000000000000000006000000000000000000000000000000000000000000000000000000000075bcd1500000000000000000000000000000000000000000000000000000000000000a00000000000000000000000000000000000000000000000000000000000000013666966612d776f726c642d6375702d323032360000000000000000000000000000000000000000000000000000000000000000000000000000000000000000037965730000000000000000000000000000000000000000000000000000000000",
        "nonce": "0x5",
        "chainId": "0x2105"
      },
      "additionalContracts": [],
      "isFixedGasLimit": false
    }
  ],
  "receipts": [],
  "libraries": [],
  "pending": [],
  "returns": {},
  "timestamp": 1770475697029,
  "chain": 8453,
  "commit": "70c45d9"
}